{
  "address": "0xe4389d82FC544E13C9925Ab1A106951eF6238168",
  "abi": [
    {
      "anonymous": false,
      "inputs": [
        {
          "indexed": false,
          "internalType": "bytes32",
          "name": "id",
          "type": "bytes32"
        },
        {
          "indexed": true,
          "internalType": "address",
          "name": "newAddress",
          "type": "address"
        }
      ],
      "name": "AddressSet",
      "type": "event"
    },
    {
      "anonymous": false,
      "inputs": [
        {
          "indexed": true,
          "internalType": "address",
          "name": "newAddress",
          "type": "address"
        }
      ],
      "name": "AssetPriceOracleAdminUpdated",
      "type": "event"
    },
    {
      "anonymous": false,
      "inputs": [
        {
          "indexed": true,
          "internalType": "address",
          "name": "newAddress",
          "type": "address"
        }
      ],
      "name": "AssetPriceOracleUpdated",
      "type": "event"
    },
    {
      "anonymous": false,
      "inputs": [
        {
          "indexed": true,
          "internalType": "address",
          "name": "newAddress",
          "type": "address"
        }
      ],
      "name": "EmergencyAdminUpdated",
      "type": "event"
    },
    {
      "anonymous": false,
      "inputs": [
        {
          "indexed": true,
          "internalType": "address",
          "name": "newAddress",
          "type": "address"
        }
      ],
      "name": "MasterSeriesUpdated",
      "type": "event"
    },
    {
      "anonymous": false,
      "inputs": [
        {
          "indexed": true,
          "internalType": "address",
          "name": "previousOwner",
          "type": "address"
        },
        {
          "indexed": true,
          "internalType": "address",
          "name": "newOwner",
          "type": "address"
        }
      ],
      "name": "OwnershipTransferred",
      "type": "event"
    },
    {
      "anonymous": false,
      "inputs": [
        {
          "indexed": true,
          "internalType": "address",
          "name": "newAddress",
          "type": "address"
        }
      ],
      "name": "PropertyFactoryAdminUpdated",
      "type": "event"
    },
    {
      "anonymous": false,
      "inputs": [
        {
          "indexed": true,
          "internalType": "address",
          "name": "newAddress",
          "type": "address"
        }
      ],
      "name": "PropertyFactoryUpdated",
      "type": "event"
    },
    {
      "anonymous": false,
      "inputs": [
        {
          "indexed": true,
          "internalType": "address",
          "name": "newAddress",
          "type": "address"
        }
      ],
      "name": "RewardDistributorAdminUpdated",
      "type": "event"
    },
    {
      "anonymous": false,
      "inputs": [
        {
          "indexed": true,
          "internalType": "address",
          "name": "newAddress",
          "type": "address"
        }
      ],
      "name": "RewardDistributorUpdated",
      "type": "event"
    },
    {
      "inputs": [
        {
          "internalType": "bytes32",
          "name": "id",
          "type": "bytes32"
        }
      ],
      "name": "getAddress",
      "outputs": [
        {
          "internalType": "address",
          "name": "",
          "type": "address"
        }
      ],
      "stateMutability": "view",
      "type": "function"
    },
    {
      "inputs": [],
      "name": "getAssetPriceOracle",
      "outputs": [
        {
          "internalType": "address",
          "name": "",
          "type": "address"
        }
      ],
      "stateMutability": "view",
      "type": "function"
    },
    {
      "inputs": [],
      "name": "getAssetPriceOracleAdmin",
      "outputs": [
        {
          "internalType": "address",
          "name": "",
          "type": "address"
        }
      ],
      "stateMutability": "view",
      "type": "function"
    },
    {
      "inputs": [],
      "name": "getEmergencyAdmin",
      "outputs": [
        {
          "internalType": "address",
          "name": "",
          "type": "address"
        }
      ],
      "stateMutability": "view",
      "type": "function"
    },
    {
      "inputs": [],
      "name": "getMasterSeries",
      "outputs": [
        {
          "internalType": "address",
          "name": "",
          "type": "address"
        }
      ],
      "stateMutability": "view",
      "type": "function"
    },
    {
      "inputs": [],
      "name": "getPropertyFactory",
      "outputs": [
        {
          "internalType": "address",
          "name": "",
          "type": "address"
        }
      ],
      "stateMutability": "view",
      "type": "function"
    },
    {
      "inputs": [],
      "name": "getPropertyFactoryAdmin",
      "outputs": [
        {
          "internalType": "address",
          "name": "",
          "type": "address"
        }
      ],
      "stateMutability": "view",
      "type": "function"
    },
    {
      "inputs": [],
      "name": "getRewardsDistributor",
      "outputs": [
        {
          "internalType": "address",
          "name": "",
          "type": "address"
        }
      ],
      "stateMutability": "view",
      "type": "function"
    },
    {
      "inputs": [],
      "name": "getRewardsDistributorAdmin",
      "outputs": [
        {
          "internalType": "address",
          "name": "",
          "type": "address"
        }
      ],
      "stateMutability": "view",
      "type": "function"
    },
    {
      "inputs": [],
      "name": "owner",
      "outputs": [
        {
          "internalType": "address",
          "name": "",
          "type": "address"
        }
      ],
      "stateMutability": "view",
      "type": "function"
    },
    {
      "inputs": [],
      "name": "renounceOwnership",
      "outputs": [],
      "stateMutability": "nonpayable",
      "type": "function"
    },
    {
      "inputs": [
        {
          "internalType": "bytes32",
          "name": "id",
          "type": "bytes32"
        },
        {
          "internalType": "address",
          "name": "newAddress",
          "type": "address"
        }
      ],
      "name": "setAddress",
      "outputs": [],
      "stateMutability": "nonpayable",
      "type": "function"
    },
    {
      "inputs": [
        {
          "internalType": "address",
          "name": "_assetPriceOracle",
          "type": "address"
        }
      ],
      "name": "setAssetPriceOracle",
      "outputs": [],
      "stateMutability": "nonpayable",
      "type": "function"
    },
    {
      "inputs": [
        {
          "internalType": "address",
          "name": "_assetPriceOracleAdmin",
          "type": "address"
        }
      ],
      "name": "setAssetPriceOracleAdmin",
      "outputs": [],
      "stateMutability": "nonpayable",
      "type": "function"
    },
    {
      "inputs": [
        {
          "internalType": "address",
          "name": "_emergencyAdmin",
          "type": "address"
        }
      ],
      "name": "setEmergencyAdmin",
      "outputs": [],
      "stateMutability": "nonpayable",
      "type": "function"
    },
    {
      "inputs": [
        {
          "internalType": "address",
          "name": "_masterSeries",
          "type": "address"
        }
      ],
      "name": "setMasterSeries",
      "outputs": [],
      "stateMutability": "nonpayable",
      "type": "function"
    },
    {
      "inputs": [
        {
          "internalType": "address",
          "name": "_propertyFactory",
          "type": "address"
        }
      ],
      "name": "setPropertyFactory",
      "outputs": [],
      "stateMutability": "nonpayable",
      "type": "function"
    },
    {
      "inputs": [
        {
          "internalType": "address",
          "name": "_propertyFactoryAdmin",
          "type": "address"
        }
      ],
      "name": "setPropertyFactoryAdmin",
      "outputs": [],
      "stateMutability": "nonpayable",
      "type": "function"
    },
    {
      "inputs": [
        {
          "internalType": "address",
          "name": "_rewardDistributor",
          "type": "address"
        }
      ],
      "name": "setRewardsDistributor",
      "outputs": [],
      "stateMutability": "nonpayable",
      "type": "function"
    },
    {
      "inputs": [
        {
          "internalType": "address",
          "name": "_rewardDistributorAdmin",
          "type": "address"
        }
      ],
      "name": "setRewardsDistributorAdmin",
      "outputs": [],
      "stateMutability": "nonpayable",
      "type": "function"
    },
    {
      "inputs": [
        {
          "internalType": "address",
          "name": "newOwner",
          "type": "address"
        }
      ],
      "name": "transferOwnership",
      "outputs": [],
      "stateMutability": "nonpayable",
      "type": "function"
    }
  ],
  "transactionHash": "0x2b3dd5a6f163fac6734490289d3a1618b394b4fea81a56d2db32ff0fd151f5b2",
  "args": [],
  "numDeployments": 1,
  "solcInputHash": "8360ed8ab91bd6123437d68828943be0",
  "bytecode": "0x608060405234801561001057600080fd5b5061002d61002261003260201b60201c565b61003a60201b60201c565b6100fe565b600033905090565b60008060009054906101000a900473ffffffffffffffffffffffffffffffffffffffff169050816000806101000a81548173ffffffffffffffffffffffffffffffffffffffff021916908373ffffffffffffffffffffffffffffffffffffffff1602179055508173ffffffffffffffffffffffffffffffffffffffff168173ffffffffffffffffffffffffffffffffffffffff167f8be0079c531659141344cd1fd0a4f28419497f9722a3daafe3b4186f6b6457e060405160405180910390a35050565b6110cb8061010d6000396000f3fe608060405234801561001057600080fd5b50600436106101375760003560e01c80638e21f01c116100b8578063d1f5c33b1161007c578063d1f5c33b146102f0578063ddcaa9ea1461030c578063e6d583531461032a578063e897e08514610346578063e95038ea14610362578063f2fde38b1461038057610137565b80638e21f01c1461025e578063baf66baa1461027c578063bdb34bcf1461029a578063c6b64225146102b8578063ca446dd9146102d457610137565b8063476cd9b4116100ff578063476cd9b4146101e057806353f4fa24146101fc578063715018a61461021857806386f1b1b6146102225780638da5cb5b1461024057610137565b806305691dbd1461013c5780631db4865f1461015857806321f8a721146101765780632fecc7dc146101a657806335da3394146101c4575b600080fd5b61015660048036038101906101519190610e3a565b61039c565b005b61016061045c565b60405161016d9190610f2c565b60405180910390f35b610190600480360381019061018b9190610e63565b61048c565b60405161019d9190610f2c565b60405180910390f35b6101ae6104c9565b6040516101bb9190610f2c565b60405180910390f35b6101de60048036038101906101d99190610e3a565b6104f9565b005b6101fa60048036038101906101f59190610e3a565b6105b9565b005b61021660048036038101906102119190610e3a565b610679565b005b610220610739565b005b61022a61074d565b6040516102379190610f2c565b60405180910390f35b61024861077d565b6040516102559190610f2c565b60405180910390f35b6102666107a6565b6040516102739190610f2c565b60405180910390f35b6102846107d6565b6040516102919190610f2c565b60405180910390f35b6102a2610806565b6040516102af9190610f2c565b60405180910390f35b6102d260048036038101906102cd9190610e3a565b610836565b005b6102ee60048036038101906102e99190610e8c565b6108f6565b005b61030a60048036038101906103059190610e3a565b6109a2565b005b610314610a62565b6040516103219190610f2c565b60405180910390f35b610344600480360381019061033f9190610e3a565b610a92565b005b610360600480360381019061035b9190610e3a565b610b52565b005b61036a610c12565b6040516103779190610f2c565b60405180910390f35b61039a60048036038101906103959190610e3a565b610c42565b005b6103a4610cc6565b80600160007f4d41535445525f53455249455300000000000000000000000000000000000000815260200190815260200160002060006101000a81548173ffffffffffffffffffffffffffffffffffffffff021916908373ffffffffffffffffffffffffffffffffffffffff1602179055508073ffffffffffffffffffffffffffffffffffffffff167f0f07fd75f83b3119b79838dbfe934e4528c45b733ba3152a498d78cac1a39f7e60405160405180910390a250565b60006104877f50524f50455254595f464143544f52595f41444d494e0000000000000000000061048c565b905090565b60006001600083815260200190815260200160002060009054906101000a900473ffffffffffffffffffffffffffffffffffffffff169050919050565b60006104f47f5245574152445f4449535452494255544f525f41444d494e000000000000000061048c565b905090565b610501610cc6565b80600160007f454d455247454e43595f41444d494e0000000000000000000000000000000000815260200190815260200160002060006101000a81548173ffffffffffffffffffffffffffffffffffffffff021916908373ffffffffffffffffffffffffffffffffffffffff1602179055508073ffffffffffffffffffffffffffffffffffffffff167fe19673fc861bfeb894cf2d6b7662505497ef31c0f489b742db24ee331082691660405160405180910390a250565b6105c1610cc6565b80600160007f4c454e44494e475f504f4f4c5f434f4e464947555241544f5200000000000000815260200190815260200160002060006101000a81548173ffffffffffffffffffffffffffffffffffffffff021916908373ffffffffffffffffffffffffffffffffffffffff1602179055508073ffffffffffffffffffffffffffffffffffffffff167f7d4b7069725cf24b8fa06a3cb45cf7c7b6df208d02ac008337f705b31f39433b60405160405180910390a250565b610681610cc6565b80600160007f41535345545f50524943455f4f5241434c455f41444d494e0000000000000000815260200190815260200160002060006101000a81548173ffffffffffffffffffffffffffffffffffffffff021916908373ffffffffffffffffffffffffffffffffffffffff1602179055508073ffffffffffffffffffffffffffffffffffffffff167f04ba4ad0cb29119a753415d9602e8bb46c7c5d565aeaa2d02ef9e24bf0a75fee60405160405180910390a250565b610741610cc6565b61074b6000610d44565b565b60006107787f41535345545f50524943455f4f5241434c455f41444d494e000000000000000061048c565b905090565b60008060009054906101000a900473ffffffffffffffffffffffffffffffffffffffff16905090565b60006107d17f524557415244535f4449535452494255544f520000000000000000000000000061048c565b905090565b60006108017f4d41535445525f5345524945530000000000000000000000000000000000000061048c565b905090565b60006108317f4c454e44494e475f504f4f4c5f434f4e464947555241544f520000000000000061048c565b905090565b61083e610cc6565b80600160007f50524f50455254595f464143544f52595f41444d494e00000000000000000000815260200190815260200160002060006101000a81548173ffffffffffffffffffffffffffffffffffffffff021916908373ffffffffffffffffffffffffffffffffffffffff1602179055508073ffffffffffffffffffffffffffffffffffffffff167f41b4ff70090e9a928757fa223ba6551577428df92ba2c77c15d3a4ead1c2f0d460405160405180910390a250565b6108fe610cc6565b806001600084815260200190815260200160002060006101000a81548173ffffffffffffffffffffffffffffffffffffffff021916908373ffffffffffffffffffffffffffffffffffffffff1602179055508073ffffffffffffffffffffffffffffffffffffffff167fb37614c7d254ea8d16eb81fa11dddaeb266aa8ba4917980859c7740aff30c691836040516109969190610f47565b60405180910390a25050565b6109aa610cc6565b80600160007f524557415244535f4449535452494255544f5200000000000000000000000000815260200190815260200160002060006101000a81548173ffffffffffffffffffffffffffffffffffffffff021916908373ffffffffffffffffffffffffffffffffffffffff1602179055508073ffffffffffffffffffffffffffffffffffffffff167f15057bbec20fe352ac8931e529ade6a9ce138c954ffc87d6aa3423dd066c4acd60405160405180910390a250565b6000610a8d7f454d455247454e43595f41444d494e000000000000000000000000000000000061048c565b905090565b610a9a610cc6565b80600160007f5245574152445f4449535452494255544f525f41444d494e0000000000000000815260200190815260200160002060006101000a81548173ffffffffffffffffffffffffffffffffffffffff021916908373ffffffffffffffffffffffffffffffffffffffff1602179055508073ffffffffffffffffffffffffffffffffffffffff167f7a7255d1b40d08685bb5f4d5c752b3b869d74e7191b356e3df234d6ff4c30d5b60405160405180910390a250565b610b5a610cc6565b80600160007f50524f50455254595f464143544f525900000000000000000000000000000000815260200190815260200160002060006101000a81548173ffffffffffffffffffffffffffffffffffffffff021916908373ffffffffffffffffffffffffffffffffffffffff1602179055508073ffffffffffffffffffffffffffffffffffffffff167f35b49eb5d7405f05d6de01f42464cd02efa86caa24ceee36cc7cc8357e777bc760405160405180910390a250565b6000610c3d7f50524f50455254595f464143544f52590000000000000000000000000000000061048c565b905090565b610c4a610cc6565b600073ffffffffffffffffffffffffffffffffffffffff168173ffffffffffffffffffffffffffffffffffffffff161415610cba576040517f08c379a0000000000000000000000000000000000000000000000000000000008152600401610cb190610f62565b60405180910390fd5b610cc381610d44565b50565b610cce610e08565b73ffffffffffffffffffffffffffffffffffffffff16610cec61077d565b73ffffffffffffffffffffffffffffffffffffffff1614610d42576040517f08c379a0000000000000000000000000000000000000000000000000000000008152600401610d3990610f82565b60405180910390fd5b565b60008060009054906101000a900473ffffffffffffffffffffffffffffffffffffffff169050816000806101000a81548173ffffffffffffffffffffffffffffffffffffffff021916908373ffffffffffffffffffffffffffffffffffffffff1602179055508173ffffffffffffffffffffffffffffffffffffffff168173ffffffffffffffffffffffffffffffffffffffff167f8be0079c531659141344cd1fd0a4f28419497f9722a3daafe3b4186f6b6457e060405160405180910390a35050565b600033905090565b600081359050610e1f81611067565b92915050565b600081359050610e348161107e565b92915050565b600060208284031215610e4c57600080fd5b6000610e5a84828501610e10565b91505092915050565b600060208284031215610e7557600080fd5b6000610e8384828501610e25565b91505092915050565b60008060408385031215610e9f57600080fd5b6000610ead85828601610e25565b9250506020610ebe85828601610e10565b9150509250929050565b610ed181610fb3565b82525050565b610ee081610fc5565b82525050565b6000610ef3602683610fa2565b9150610efe82610fef565b604082019050919050565b6000610f16602083610fa2565b9150610f218261103e565b602082019050919050565b6000602082019050610f416000830184610ec8565b92915050565b6000602082019050610f5c6000830184610ed7565b92915050565b60006020820190508181036000830152610f7b81610ee6565b9050919050565b60006020820190508181036000830152610f9b81610f09565b9050919050565b600082825260208201905092915050565b6000610fbe82610fcf565b9050919050565b6000819050919050565b600073ffffffffffffffffffffffffffffffffffffffff82169050919050565b7f4f776e61626c653a206e6577206f776e657220697320746865207a65726f206160008201527f6464726573730000000000000000000000000000000000000000000000000000602082015250565b7f4f776e61626c653a2063616c6c6572206973206e6f7420746865206f776e6572600082015250565b61107081610fb3565b811461107b57600080fd5b50565b61108781610fc5565b811461109257600080fd5b5056fea26469706673582212200c44d8cef2ce59172b304759baa83783b3cfab98eb3e03b19ff62d350ed5370364736f6c63430008020033",
  "devdoc": {
    "kind": "dev",
    "methods": {
      "owner()": {
        "details": "Returns the address of the current owner."
      },
      "renounceOwnership()": {
        "details": "Leaves the contract without owner. It will not be possible to call `onlyOwner` functions anymore. Can only be called by the current owner. NOTE: Renouncing ownership will leave the contract without an owner, thereby removing any functionality that is only available to the owner."
      },
      "transferOwnership(address)": {
        "details": "Transfers ownership of the contract to a new account (`newOwner`). Can only be called by the current owner."
      }
    },
    "version": 1
  },
  "userdoc": {
    "kind": "user",
    "methods": {},
    "version": 1
  },
  "storageLayout": {
    "storage": [
      {
        "astId": 3767,
        "contract": "contracts/v3/AddressesProvider.sol:AddressesProvider",
        "label": "_owner",
        "offset": 0,
        "slot": "0",
        "type": "t_address"
      },
      {
        "astId": 7380,
        "contract": "contracts/v3/AddressesProvider.sol:AddressesProvider",
        "label": "_addresses",
        "offset": 0,
        "slot": "1",
        "type": "t_mapping(t_bytes32,t_address)"
      }
    ],
    "types": {
      "t_address": {
        "encoding": "inplace",
        "label": "address",
        "numberOfBytes": "20"
      },
      "t_bytes32": {
        "encoding": "inplace",
        "label": "bytes32",
        "numberOfBytes": "32"
      },
      "t_mapping(t_bytes32,t_address)": {
        "encoding": "mapping",
        "key": "t_bytes32",
        "label": "mapping(bytes32 => address)",
        "numberOfBytes": "32",
        "value": "t_address"
      }
    }
  }
}