{
  "address": "0x3861Bb32C200CF1D7CC3ab799af55CE56b939dfC",
  "abi": [
    {
      "inputs": [
        {
          "internalType": "address",
          "name": "_addressesProvider",
          "type": "address"
        }
      ],
      "stateMutability": "nonpayable",
      "type": "constructor"
    },
    {
      "inputs": [
        {
          "internalType": "address",
          "name": "asset",
          "type": "address"
        },
        {
          "internalType": "uint256",
          "name": "price",
          "type": "uint256"
        }
      ],
      "name": "addAsset",
      "outputs": [],
      "stateMutability": "nonpayable",
      "type": "function"
    },
    {
      "inputs": [
        {
          "internalType": "address[]",
          "name": "assets",
          "type": "address[]"
        },
        {
          "internalType": "uint256[]",
          "name": "prices",
          "type": "uint256[]"
        }
      ],
      "name": "addAssets",
      "outputs": [],
      "stateMutability": "nonpayable",
      "type": "function"
    },
    {
      "inputs": [],
      "name": "addressesProvider",
      "outputs": [
        {
          "internalType": "contract IAddressesProvider",
          "name": "",
          "type": "address"
        }
      ],
      "stateMutability": "view",
      "type": "function"
    },
    {
      "inputs": [
        {
          "internalType": "address",
          "name": "",
          "type": "address"
        }
      ],
      "name": "assetPrice",
      "outputs": [
        {
          "internalType": "uint256",
          "name": "price",
          "type": "uint256"
        },
        {
          "internalType": "uint256",
          "name": "timestamp",
          "type": "uint256"
        }
      ],
      "stateMutability": "view",
      "type": "function"
    },
    {
      "inputs": [
        {
          "internalType": "address",
          "name": "asset",
          "type": "address"
        }
      ],
      "name": "latestPrice",
      "outputs": [
        {
          "internalType": "uint256",
          "name": "",
          "type": "uint256"
        }
      ],
      "stateMutability": "view",
      "type": "function"
    },
    {
      "inputs": [
        {
          "internalType": "address",
          "name": "asset",
          "type": "address"
        }
      ],
      "name": "latestTimestamp",
      "outputs": [
        {
          "internalType": "uint256",
          "name": "",
          "type": "uint256"
        }
      ],
      "stateMutability": "view",
      "type": "function"
    },
    {
      "inputs": [
        {
          "internalType": "address",
          "name": "asset",
          "type": "address"
        }
      ],
      "name": "removeAsset",
      "outputs": [],
      "stateMutability": "nonpayable",
      "type": "function"
    },
    {
      "inputs": [
        {
          "internalType": "address",
          "name": "asset",
          "type": "address"
        },
        {
          "internalType": "uint256",
          "name": "price",
          "type": "uint256"
        }
      ],
      "name": "setAssetPrice",
      "outputs": [],
      "stateMutability": "nonpayable",
      "type": "function"
    },
    {
      "inputs": [
        {
          "internalType": "address[]",
          "name": "assets",
          "type": "address[]"
        },
        {
          "internalType": "uint256[]",
          "name": "prices",
          "type": "uint256[]"
        }
      ],
      "name": "setAssetPrices",
      "outputs": [],
      "stateMutability": "nonpayable",
      "type": "function"
    }
  ],
  "transactionHash": "0x06901af9c75877e80920131216478fca5f777bd9dde1d0af5e58e24f6db9f85a",
  "args": [
    "0xe4389d82FC544E13C9925Ab1A106951eF6238168"
  ],
  "numDeployments": 1,
  "solcInputHash": "8360ed8ab91bd6123437d68828943be0",
  "bytecode": "0x60806040523480156200001157600080fd5b50604051620015ab380380620015ab833981810160405281019062000037919062000095565b806000806101000a81548173ffffffffffffffffffffffffffffffffffffffff021916908373ffffffffffffffffffffffffffffffffffffffff160217905550506200010f565b6000815190506200008f81620000f5565b92915050565b600060208284031215620000a857600080fd5b6000620000b8848285016200007e565b91505092915050565b6000620000ce82620000d5565b9050919050565b600073ffffffffffffffffffffffffffffffffffffffff82169050919050565b6200010081620000c1565b81146200010c57600080fd5b50565b61148c806200011f6000396000f3fe608060405234801561001057600080fd5b50600436106100935760003560e01c806359dd1ce61161006657806359dd1ce61461011c57806366a6a4bd1461014c578063b883b05814610168578063c72c4d1014610199578063ecb1c85a146101b757610093565b80633d8ef0de146100985780634a5e42b1146100b457806351323f72146100d057806353084eff146100ec575b600080fd5b6100b260048036038101906100ad9190610e8e565b6101d3565b005b6100ce60048036038101906100c99190610e00565b6103d0565b005b6100ea60048036038101906100e59190610e52565b6105b6565b005b61010660048036038101906101019190610e00565b610796565b6040516101139190611082565b60405180910390f35b61013660048036038101906101319190610e00565b6107e2565b6040516101439190611082565b60405180910390f35b61016660048036038101906101619190610e52565b61082e565b005b610182600480360381019061017d9190610e00565b610a50565b60405161019092919061109d565b60405180910390f35b6101a1610a74565b6040516101ae9190610fc7565b60405180910390f35b6101d160048036038101906101cc9190610e8e565b610a98565b005b60008054906101000a900473ffffffffffffffffffffffffffffffffffffffff1673ffffffffffffffffffffffffffffffffffffffff166386f1b1b66040518163ffffffff1660e01b815260040160206040518083038186803b15801561023957600080fd5b505afa15801561024d573d6000803e3d6000fd5b505050506040513d601f19601f820116820180604052508101906102719190610e29565b73ffffffffffffffffffffffffffffffffffffffff163373ffffffffffffffffffffffffffffffffffffffff16146102de576040517f08c379a00000000000000000000000000000000000000000000000000000000081526004016102d590610fe2565b60405180910390fd5b8051825114610322576040517f08c379a000000000000000000000000000000000000000000000000000000000815260040161031990611022565b60405180910390fd5b60005b82518110156103cb576103b883828151811061036a577f4e487b7100000000000000000000000000000000000000000000000000000000600052603260045260246000fd5b60200260200101518383815181106103ab577f4e487b7100000000000000000000000000000000000000000000000000000000600052603260045260246000fd5b602002602001015161082e565b80806103c3906111e5565b915050610325565b505050565b60008054906101000a900473ffffffffffffffffffffffffffffffffffffffff1673ffffffffffffffffffffffffffffffffffffffff166386f1b1b66040518163ffffffff1660e01b815260040160206040518083038186803b15801561043657600080fd5b505afa15801561044a573d6000803e3d6000fd5b505050506040513d601f19601f8201168201806040525081019061046e9190610e29565b73ffffffffffffffffffffffffffffffffffffffff163373ffffffffffffffffffffffffffffffffffffffff16146104db576040517f08c379a00000000000000000000000000000000000000000000000000000000081526004016104d290610fe2565b60405180910390fd5b6000600160008373ffffffffffffffffffffffffffffffffffffffff1673ffffffffffffffffffffffffffffffffffffffff168152602001908152602001600020600101541415610561576040517f08c379a000000000000000000000000000000000000000000000000000000000815260040161055890611042565b60405180910390fd5b600160008273ffffffffffffffffffffffffffffffffffffffff1673ffffffffffffffffffffffffffffffffffffffff1681526020019081526020016000206000808201600090556001820160009055505050565b60008054906101000a900473ffffffffffffffffffffffffffffffffffffffff1673ffffffffffffffffffffffffffffffffffffffff166386f1b1b66040518163ffffffff1660e01b815260040160206040518083038186803b15801561061c57600080fd5b505afa158015610630573d6000803e3d6000fd5b505050506040513d601f19601f820116820180604052508101906106549190610e29565b73ffffffffffffffffffffffffffffffffffffffff163373ffffffffffffffffffffffffffffffffffffffff16146106c1576040517f08c379a00000000000000000000000000000000000000000000000000000000081526004016106b890610fe2565b60405180910390fd5b60008111610704576040517f08c379a00000000000000000000000000000000000000000000000000000000081526004016106fb90611002565b60405180910390fd5b80600160008473ffffffffffffffffffffffffffffffffffffffff1673ffffffffffffffffffffffffffffffffffffffff1681526020019081526020016000206000018190555042600160008473ffffffffffffffffffffffffffffffffffffffff1673ffffffffffffffffffffffffffffffffffffffff168152602001908152602001600020600101819055505050565b6000600160008373ffffffffffffffffffffffffffffffffffffffff1673ffffffffffffffffffffffffffffffffffffffff168152602001908152602001600020600001549050919050565b6000600160008373ffffffffffffffffffffffffffffffffffffffff1673ffffffffffffffffffffffffffffffffffffffff168152602001908152602001600020600101549050919050565b60008054906101000a900473ffffffffffffffffffffffffffffffffffffffff1673ffffffffffffffffffffffffffffffffffffffff166386f1b1b66040518163ffffffff1660e01b815260040160206040518083038186803b15801561089457600080fd5b505afa1580156108a8573d6000803e3d6000fd5b505050506040513d601f19601f820116820180604052508101906108cc9190610e29565b73ffffffffffffffffffffffffffffffffffffffff163373ffffffffffffffffffffffffffffffffffffffff1614610939576040517f08c379a000000000000000000000000000000000000000000000000000000000815260040161093090610fe2565b60405180910390fd5b6000600160008473ffffffffffffffffffffffffffffffffffffffff1673ffffffffffffffffffffffffffffffffffffffff16815260200190815260200160002060010154146109be576040517f08c379a00000000000000000000000000000000000000000000000000000000081526004016109b590611062565b60405180910390fd5b80600160008473ffffffffffffffffffffffffffffffffffffffff1673ffffffffffffffffffffffffffffffffffffffff1681526020019081526020016000206000018190555042600160008473ffffffffffffffffffffffffffffffffffffffff1673ffffffffffffffffffffffffffffffffffffffff168152602001908152602001600020600101819055505050565b60016020528060005260406000206000915090508060000154908060010154905082565b60008054906101000a900473ffffffffffffffffffffffffffffffffffffffff1681565b60008054906101000a900473ffffffffffffffffffffffffffffffffffffffff1673ffffffffffffffffffffffffffffffffffffffff166386f1b1b66040518163ffffffff1660e01b815260040160206040518083038186803b158015610afe57600080fd5b505afa158015610b12573d6000803e3d6000fd5b505050506040513d601f19601f82011682018060405250810190610b369190610e29565b73ffffffffffffffffffffffffffffffffffffffff163373ffffffffffffffffffffffffffffffffffffffff1614610ba3576040517f08c379a0000000000000000000000000000000000000000000000000000000008152600401610b9a90610fe2565b60405180910390fd5b8051825114610be7576040517f08c379a0000000000000000000000000000000000000000000000000000000008152600401610bde90611022565b60405180910390fd5b60005b8251811015610c9057610c7d838281518110610c2f577f4e487b7100000000000000000000000000000000000000000000000000000000600052603260045260246000fd5b6020026020010151838381518110610c70577f4e487b7100000000000000000000000000000000000000000000000000000000600052603260045260246000fd5b60200260200101516105b6565b8080610c88906111e5565b915050610bea565b505050565b6000610ca8610ca3846110eb565b6110c6565b90508083825260208201905082856020860282011115610cc757600080fd5b60005b85811015610cf75781610cdd8882610d6d565b845260208401935060208301925050600181019050610cca565b5050509392505050565b6000610d14610d0f84611117565b6110c6565b90508083825260208201905082856020860282011115610d3357600080fd5b60005b85811015610d635781610d498882610deb565b845260208401935060208301925050600181019050610d36565b5050509392505050565b600081359050610d7c81611428565b92915050565b600081519050610d9181611428565b92915050565b600082601f830112610da857600080fd5b8135610db8848260208601610c95565b91505092915050565b600082601f830112610dd257600080fd5b8135610de2848260208601610d01565b91505092915050565b600081359050610dfa8161143f565b92915050565b600060208284031215610e1257600080fd5b6000610e2084828501610d6d565b91505092915050565b600060208284031215610e3b57600080fd5b6000610e4984828501610d82565b91505092915050565b60008060408385031215610e6557600080fd5b6000610e7385828601610d6d565b9250506020610e8485828601610deb565b9150509250929050565b60008060408385031215610ea157600080fd5b600083013567ffffffffffffffff811115610ebb57600080fd5b610ec785828601610d97565b925050602083013567ffffffffffffffff811115610ee457600080fd5b610ef085828601610dc1565b9150509250929050565b610f0381611190565b82525050565b6000610f16603983611143565b9150610f218261129d565b604082019050919050565b6000610f39602e83611143565b9150610f44826112ec565b604082019050919050565b6000610f5c602b83611143565b9150610f678261133b565b604082019050919050565b6000610f7f602683611143565b9150610f8a8261138a565b604082019050919050565b6000610fa2602683611143565b9150610fad826113d9565b604082019050919050565b610fc181611186565b82525050565b6000602082019050610fdc6000830184610efa565b92915050565b60006020820190508181036000830152610ffb81610f09565b9050919050565b6000602082019050818103600083015261101b81610f2c565b9050919050565b6000602082019050818103600083015261103b81610f4f565b9050919050565b6000602082019050818103600083015261105b81610f72565b9050919050565b6000602082019050818103600083015261107b81610f95565b9050919050565b60006020820190506110976000830184610fb8565b92915050565b60006040820190506110b26000830185610fb8565b6110bf6020830184610fb8565b9392505050565b60006110d06110e1565b90506110dc82826111b4565b919050565b6000604051905090565b600067ffffffffffffffff8211156111065761110561125d565b5b602082029050602081019050919050565b600067ffffffffffffffff8211156111325761113161125d565b5b602082029050602081019050919050565b600082825260208201905092915050565b600061115f82611166565b9050919050565b600073ffffffffffffffffffffffffffffffffffffffff82169050919050565b6000819050919050565b600061119b826111a2565b9050919050565b60006111ad82611166565b9050919050565b6111bd8261128c565b810181811067ffffffffffffffff821117156111dc576111db61125d565b5b80604052505050565b60006111f082611186565b91507fffffffffffffffffffffffffffffffffffffffffffffffffffffffffffffffff8214156112235761122261122e565b5b600182019050919050565b7f4e487b7100000000000000000000000000000000000000000000000000000000600052601160045260246000fd5b7f4e487b7100000000000000000000000000000000000000000000000000000000600052604160045260246000fd5b6000601f19601f8301169050919050565b7f417373657450726963654f7261636c653a2063616c6c6572206973206e6f742060008201527f74686520417373657450726963654f7261636c6541646d696e00000000000000602082015250565b7f417373657450726963654f7261636c653a207072696365206d7573742062652060008201527f67726561746572207468616e2030000000000000000000000000000000000000602082015250565b7f61737365747320616e6420707269636573206d7573742068617665207468652060008201527f73616d65206c656e677468000000000000000000000000000000000000000000602082015250565b7f417373657450726963654f7261636c653a20617373657420646f6573206e6f7460008201527f2065786973740000000000000000000000000000000000000000000000000000602082015250565b7f417373657450726963654f7261636c653a20617373657420616c72656164792060008201527f6578697374730000000000000000000000000000000000000000000000000000602082015250565b61143181611154565b811461143c57600080fd5b50565b61144881611186565b811461145357600080fd5b5056fea264697066735822122044758836dd88272e09e8c10b98a74fe3c7fcc04fd398ed1dce84c4413e2f060e64736f6c63430008020033",
  "devdoc": {
    "kind": "dev",
    "methods": {},
    "version": 1
  },
  "userdoc": {
    "kind": "user",
    "methods": {},
    "version": 1
  },
  "storageLayout": {
    "storage": [
      {
        "astId": 8042,
        "contract": "contracts/v3/AssetPriceOracle.sol:AssetPriceOracle",
        "label": "addressesProvider",
        "offset": 0,
        "slot": "0",
        "type": "t_contract(IAddressesProvider)11150"
      },
      {
        "astId": 8059,
        "contract": "contracts/v3/AssetPriceOracle.sol:AssetPriceOracle",
        "label": "assetPrice",
        "offset": 0,
        "slot": "1",
        "type": "t_mapping(t_address,t_struct(Price)8025_storage)"
      }
    ],
    "types": {
      "t_address": {
        "encoding": "inplace",
        "label": "address",
        "numberOfBytes": "20"
      },
      "t_contract(IAddressesProvider)11150": {
        "encoding": "inplace",
        "label": "contract IAddressesProvider",
        "numberOfBytes": "20"
      },
      "t_mapping(t_address,t_struct(Price)8025_storage)": {
        "encoding": "mapping",
        "key": "t_address",
        "label": "mapping(address => struct AssetPriceOracle.Price)",
        "numberOfBytes": "32",
        "value": "t_struct(Price)8025_storage"
      },
      "t_struct(Price)8025_storage": {
        "encoding": "inplace",
        "label": "struct AssetPriceOracle.Price",
        "members": [
          {
            "astId": 8022,
            "contract": "contracts/v3/AssetPriceOracle.sol:AssetPriceOracle",
            "label": "price",
            "offset": 0,
            "slot": "0",
            "type": "t_uint256"
          },
          {
            "astId": 8024,
            "contract": "contracts/v3/AssetPriceOracle.sol:AssetPriceOracle",
            "label": "timestamp",
            "offset": 0,
            "slot": "1",
            "type": "t_uint256"
          }
        ],
        "numberOfBytes": "64"
      },
      "t_uint256": {
        "encoding": "inplace",
        "label": "uint256",
        "numberOfBytes": "32"
      }
    }
  }
}