{
  "address": "0x010d351B3FD2f7BDdE6fc48963F9719d357a5022",
  "abi": [
    {
      "inputs": [],
      "stateMutability": "nonpayable",
      "type": "constructor"
    },
    {
      "anonymous": false,
      "inputs": [
        {
          "indexed": true,
          "internalType": "address",
          "name": "owner",
          "type": "address"
        },
        {
          "indexed": true,
          "internalType": "address",
          "name": "spender",
          "type": "address"
        },
        {
          "indexed": false,
          "internalType": "uint256",
          "name": "value",
          "type": "uint256"
        }
      ],
      "name": "Approval",
      "type": "event"
    },
    {
      "anonymous": false,
      "inputs": [
        {
          "indexed": true,
          "internalType": "address",
          "name": "previousOwner",
          "type": "address"
        },
        {
          "indexed": true,
          "internalType": "address",
          "name": "newOwner",
          "type": "address"
        }
      ],
      "name": "OwnershipTransferred",
      "type": "event"
    },
    {
      "anonymous": false,
      "inputs": [
        {
          "indexed": true,
          "internalType": "address",
          "name": "from",
          "type": "address"
        },
        {
          "indexed": true,
          "internalType": "address",
          "name": "to",
          "type": "address"
        },
        {
          "indexed": false,
          "internalType": "uint256",
          "name": "value",
          "type": "uint256"
        }
      ],
      "name": "Transfer",
      "type": "event"
    },
    {
      "inputs": [
        {
          "internalType": "address",
          "name": "owner",
          "type": "address"
        },
        {
          "internalType": "address",
          "name": "spender",
          "type": "address"
        }
      ],
      "name": "allowance",
      "outputs": [
        {
          "internalType": "uint256",
          "name": "",
          "type": "uint256"
        }
      ],
      "stateMutability": "view",
      "type": "function"
    },
    {
      "inputs": [
        {
          "internalType": "address",
          "name": "spender",
          "type": "address"
        },
        {
          "internalType": "uint256",
          "name": "amount",
          "type": "uint256"
        }
      ],
      "name": "approve",
      "outputs": [
        {
          "internalType": "bool",
          "name": "",
          "type": "bool"
        }
      ],
      "stateMutability": "nonpayable",
      "type": "function"
    },
    {
      "inputs": [
        {
          "internalType": "address",
          "name": "account",
          "type": "address"
        }
      ],
      "name": "balanceOf",
      "outputs": [
        {
          "internalType": "uint256",
          "name": "",
          "type": "uint256"
        }
      ],
      "stateMutability": "view",
      "type": "function"
    },
    {
      "inputs": [],
      "name": "decimals",
      "outputs": [
        {
          "internalType": "uint8",
          "name": "",
          "type": "uint8"
        }
      ],
      "stateMutability": "view",
      "type": "function"
    },
    {
      "inputs": [
        {
          "internalType": "address",
          "name": "spender",
          "type": "address"
        },
        {
          "internalType": "uint256",
          "name": "subtractedValue",
          "type": "uint256"
        }
      ],
      "name": "decreaseAllowance",
      "outputs": [
        {
          "internalType": "bool",
          "name": "",
          "type": "bool"
        }
      ],
      "stateMutability": "nonpayable",
      "type": "function"
    },
    {
      "inputs": [
        {
          "internalType": "address",
          "name": "spender",
          "type": "address"
        },
        {
          "internalType": "uint256",
          "name": "addedValue",
          "type": "uint256"
        }
      ],
      "name": "increaseAllowance",
      "outputs": [
        {
          "internalType": "bool",
          "name": "",
          "type": "bool"
        }
      ],
      "stateMutability": "nonpayable",
      "type": "function"
    },
    {
      "inputs": [],
      "name": "name",
      "outputs": [
        {
          "internalType": "string",
          "name": "",
          "type": "string"
        }
      ],
      "stateMutability": "view",
      "type": "function"
    },
    {
      "inputs": [],
      "name": "owner",
      "outputs": [
        {
          "internalType": "address",
          "name": "",
          "type": "address"
        }
      ],
      "stateMutability": "view",
      "type": "function"
    },
    {
      "inputs": [],
      "name": "renounceOwnership",
      "outputs": [],
      "stateMutability": "nonpayable",
      "type": "function"
    },
    {
      "inputs": [],
      "name": "rewardsDistributor",
      "outputs": [
        {
          "internalType": "contract RewardsDistributor",
          "name": "",
          "type": "address"
        }
      ],
      "stateMutability": "view",
      "type": "function"
    },
    {
      "inputs": [
        {
          "internalType": "address",
          "name": "_rewardsDistributor",
          "type": "address"
        }
      ],
      "name": "setRewardsDistributor",
      "outputs": [],
      "stateMutability": "nonpayable",
      "type": "function"
    },
    {
      "inputs": [],
      "name": "symbol",
      "outputs": [
        {
          "internalType": "string",
          "name": "",
          "type": "string"
        }
      ],
      "stateMutability": "view",
      "type": "function"
    },
    {
      "inputs": [],
      "name": "totalSupply",
      "outputs": [
        {
          "internalType": "uint256",
          "name": "",
          "type": "uint256"
        }
      ],
      "stateMutability": "view",
      "type": "function"
    },
    {
      "inputs": [
        {
          "internalType": "address",
          "name": "to",
          "type": "address"
        },
        {
          "internalType": "uint256",
          "name": "amount",
          "type": "uint256"
        }
      ],
      "name": "transfer",
      "outputs": [
        {
          "internalType": "bool",
          "name": "",
          "type": "bool"
        }
      ],
      "stateMutability": "nonpayable",
      "type": "function"
    },
    {
      "inputs": [
        {
          "internalType": "address",
          "name": "from",
          "type": "address"
        },
        {
          "internalType": "address",
          "name": "to",
          "type": "address"
        },
        {
          "internalType": "uint256",
          "name": "amount",
          "type": "uint256"
        }
      ],
      "name": "transferFrom",
      "outputs": [
        {
          "internalType": "bool",
          "name": "",
          "type": "bool"
        }
      ],
      "stateMutability": "nonpayable",
      "type": "function"
    },
    {
      "inputs": [
        {
          "internalType": "address",
          "name": "newOwner",
          "type": "address"
        }
      ],
      "name": "transferOwnership",
      "outputs": [],
      "stateMutability": "nonpayable",
      "type": "function"
    }
  ],
  "transactionHash": "0x992222c3f430cc47251913fca1d9558315ec4ab77fb622fa5ad516a0df107e07",
  "args": [],
  "numDeployments": 1,
  "solcInputHash": "8dbabca566951ac19e4e0e32d9658fd0",
  "bytecode": "0x60806040523480156200001157600080fd5b506040518060400160405280600581526020017f41737365740000000000000000000000000000000000000000000000000000008152506040518060400160405280600581526020017f415353455400000000000000000000000000000000000000000000000000000081525081600390805190602001906200009692919062000345565b508060049080519060200190620000af92919062000345565b505050620000d2620000c6620000f460201b60201c565b620000fc60201b60201c565b620000ee3369d3c21bcecceda1000000620001c260201b60201c565b620005a1565b600033905090565b6000600560009054906101000a900473ffffffffffffffffffffffffffffffffffffffff16905081600560006101000a81548173ffffffffffffffffffffffffffffffffffffffff021916908373ffffffffffffffffffffffffffffffffffffffff1602179055508173ffffffffffffffffffffffffffffffffffffffff168173ffffffffffffffffffffffffffffffffffffffff167f8be0079c531659141344cd1fd0a4f28419497f9722a3daafe3b4186f6b6457e060405160405180910390a35050565b600073ffffffffffffffffffffffffffffffffffffffff168273ffffffffffffffffffffffffffffffffffffffff16141562000235576040517f08c379a00000000000000000000000000000000000000000000000000000000081526004016200022c906200042d565b60405180910390fd5b62000249600083836200033b60201b60201c565b80600260008282546200025d91906200047d565b92505081905550806000808473ffffffffffffffffffffffffffffffffffffffff1673ffffffffffffffffffffffffffffffffffffffff1681526020019081526020016000206000828254620002b491906200047d565b925050819055508173ffffffffffffffffffffffffffffffffffffffff16600073ffffffffffffffffffffffffffffffffffffffff167fddf252ad1be2c89b69c2b068fc378daa952ba7f163c4a11628f55a4df523b3ef836040516200031b91906200044f565b60405180910390a362000337600083836200034060201b60201c565b5050565b505050565b505050565b8280546200035390620004e4565b90600052602060002090601f016020900481019282620003775760008555620003c3565b82601f106200039257805160ff1916838001178555620003c3565b82800160010185558215620003c3579182015b82811115620003c2578251825591602001919060010190620003a5565b5b509050620003d29190620003d6565b5090565b5b80821115620003f1576000816000905550600101620003d7565b5090565b600062000404601f836200046c565b9150620004118262000578565b602082019050919050565b6200042781620004da565b82525050565b600060208201905081810360008301526200044881620003f5565b9050919050565b60006020820190506200046660008301846200041c565b92915050565b600082825260208201905092915050565b60006200048a82620004da565b91506200049783620004da565b9250827fffffffffffffffffffffffffffffffffffffffffffffffffffffffffffffffff03821115620004cf57620004ce6200051a565b5b828201905092915050565b6000819050919050565b60006002820490506001821680620004fd57607f821691505b6020821081141562000514576200051362000549565b5b50919050565b7f4e487b7100000000000000000000000000000000000000000000000000000000600052601160045260246000fd5b7f4e487b7100000000000000000000000000000000000000000000000000000000600052602260045260246000fd5b7f45524332303a206d696e7420746f20746865207a65726f206164647265737300600082015250565b6119bc80620005b16000396000f3fe608060405234801561001057600080fd5b50600436106101005760003560e01c8063715018a611610097578063a9059cbb11610066578063a9059cbb146102b3578063d1f5c33b146102e3578063dd62ed3e146102ff578063f2fde38b1461032f57610100565b8063715018a61461023d5780638da5cb5b1461024757806395d89b4114610265578063a457c2d71461028357610100565b8063313ce567116100d3578063313ce567146101a157806339509351146101bf5780633f2a5540146101ef57806370a082311461020d57610100565b806306fdde0314610105578063095ea7b31461012357806318160ddd1461015357806323b872dd14610171575b600080fd5b61010d61034b565b60405161011a919061135d565b60405180910390f35b61013d600480360381019061013891906110c5565b6103dd565b60405161014a9190611327565b60405180910390f35b61015b610400565b60405161016891906114bf565b60405180910390f35b61018b60048036038101906101869190611076565b61040a565b6040516101989190611327565b60405180910390f35b6101a9610439565b6040516101b691906114da565b60405180910390f35b6101d960048036038101906101d491906110c5565b610442565b6040516101e69190611327565b60405180910390f35b6101f7610479565b6040516102049190611342565b60405180910390f35b61022760048036038101906102229190611011565b61049f565b60405161023491906114bf565b60405180910390f35b6102456104e7565b005b61024f6104fb565b60405161025c91906112e3565b60405180910390f35b61026d610525565b60405161027a919061135d565b60405180910390f35b61029d600480360381019061029891906110c5565b6105b7565b6040516102aa9190611327565b60405180910390f35b6102cd60048036038101906102c891906110c5565b61062e565b6040516102da9190611327565b60405180910390f35b6102fd60048036038101906102f89190611011565b610651565b005b6103196004803603810190610314919061103a565b61070d565b60405161032691906114bf565b60405180910390f35b61034960048036038101906103449190611011565b610794565b005b60606003805461035a90611613565b80601f016020809104026020016040519081016040528092919081815260200182805461038690611613565b80156103d35780601f106103a8576101008083540402835291602001916103d3565b820191906000526020600020905b8154815290600101906020018083116103b657829003601f168201915b5050505050905090565b6000806103e8610818565b90506103f5818585610820565b600191505092915050565b6000600254905090565b600080610415610818565b90506104228582856109eb565b61042d858585610a77565b60019150509392505050565b60006012905090565b60008061044d610818565b905061046e81858561045f858961070d565b6104699190611511565b610820565b600191505092915050565b600660009054906101000a900473ffffffffffffffffffffffffffffffffffffffff1681565b60008060008373ffffffffffffffffffffffffffffffffffffffff1673ffffffffffffffffffffffffffffffffffffffff168152602001908152602001600020549050919050565b6104ef610c18565b6104f96000610c96565b565b6000600560009054906101000a900473ffffffffffffffffffffffffffffffffffffffff16905090565b60606004805461053490611613565b80601f016020809104026020016040519081016040528092919081815260200182805461056090611613565b80156105ad5780601f10610582576101008083540402835291602001916105ad565b820191906000526020600020905b81548152906001019060200180831161059057829003601f168201915b5050505050905090565b6000806105c2610818565b905060006105d0828661070d565b905083811015610615576040517f08c379a000000000000000000000000000000000000000000000000000000000815260040161060c9061149f565b60405180910390fd5b6106228286868403610820565b60019250505092915050565b600080610639610818565b9050610646818585610a77565b600191505092915050565b610659610c18565b600073ffffffffffffffffffffffffffffffffffffffff168173ffffffffffffffffffffffffffffffffffffffff1614156106c9576040517f08c379a00000000000000000000000000000000000000000000000000000000081526004016106c09061139f565b60405180910390fd5b80600660006101000a81548173ffffffffffffffffffffffffffffffffffffffff021916908373ffffffffffffffffffffffffffffffffffffffff16021790555050565b6000600160008473ffffffffffffffffffffffffffffffffffffffff1673ffffffffffffffffffffffffffffffffffffffff16815260200190815260200160002060008373ffffffffffffffffffffffffffffffffffffffff1673ffffffffffffffffffffffffffffffffffffffff16815260200190815260200160002054905092915050565b61079c610c18565b600073ffffffffffffffffffffffffffffffffffffffff168173ffffffffffffffffffffffffffffffffffffffff16141561080c576040517f08c379a0000000000000000000000000000000000000000000000000000000008152600401610803906113bf565b60405180910390fd5b61081581610c96565b50565b600033905090565b600073ffffffffffffffffffffffffffffffffffffffff168373ffffffffffffffffffffffffffffffffffffffff161415610890576040517f08c379a00000000000000000000000000000000000000000000000000000000081526004016108879061147f565b60405180910390fd5b600073ffffffffffffffffffffffffffffffffffffffff168273ffffffffffffffffffffffffffffffffffffffff161415610900576040517f08c379a00000000000000000000000000000000000000000000000000000000081526004016108f7906113df565b60405180910390fd5b80600160008573ffffffffffffffffffffffffffffffffffffffff1673ffffffffffffffffffffffffffffffffffffffff16815260200190815260200160002060008473ffffffffffffffffffffffffffffffffffffffff1673ffffffffffffffffffffffffffffffffffffffff168152602001908152602001600020819055508173ffffffffffffffffffffffffffffffffffffffff168373ffffffffffffffffffffffffffffffffffffffff167f8c5be1e5ebec7d5bd14f71427d1e84f3dd0314c0f7b2291e5b200ac8c7c3b925836040516109de91906114bf565b60405180910390a3505050565b60006109f7848461070d565b90507fffffffffffffffffffffffffffffffffffffffffffffffffffffffffffffffff8114610a715781811015610a63576040517f08c379a0000000000000000000000000000000000000000000000000000000008152600401610a5a906113ff565b60405180910390fd5b610a708484848403610820565b5b50505050565b610a82838383610d5c565b600073ffffffffffffffffffffffffffffffffffffffff16600660009054906101000a900473ffffffffffffffffffffffffffffffffffffffff1673ffffffffffffffffffffffffffffffffffffffff1614610c13576000610ae38461049f565b90506000610af08461049f565b9050600660009054906101000a900473ffffffffffffffffffffffffffffffffffffffff1673ffffffffffffffffffffffffffffffffffffffff1663117f5ac486846040518363ffffffff1660e01b8152600401610b4f9291906112fe565b600060405180830381600087803b158015610b6957600080fd5b505af1158015610b7d573d6000803e3d6000fd5b50505050600660009054906101000a900473ffffffffffffffffffffffffffffffffffffffff1673ffffffffffffffffffffffffffffffffffffffff1663117f5ac485836040518363ffffffff1660e01b8152600401610bde9291906112fe565b600060405180830381600087803b158015610bf857600080fd5b505af1158015610c0c573d6000803e3d6000fd5b5050505050505b505050565b610c20610818565b73ffffffffffffffffffffffffffffffffffffffff16610c3e6104fb565b73ffffffffffffffffffffffffffffffffffffffff1614610c94576040517f08c379a0000000000000000000000000000000000000000000000000000000008152600401610c8b9061143f565b60405180910390fd5b565b6000600560009054906101000a900473ffffffffffffffffffffffffffffffffffffffff16905081600560006101000a81548173ffffffffffffffffffffffffffffffffffffffff021916908373ffffffffffffffffffffffffffffffffffffffff1602179055508173ffffffffffffffffffffffffffffffffffffffff168173ffffffffffffffffffffffffffffffffffffffff167f8be0079c531659141344cd1fd0a4f28419497f9722a3daafe3b4186f6b6457e060405160405180910390a35050565b600073ffffffffffffffffffffffffffffffffffffffff168373ffffffffffffffffffffffffffffffffffffffff161415610dcc576040517f08c379a0000000000000000000000000000000000000000000000000000000008152600401610dc39061145f565b60405180910390fd5b600073ffffffffffffffffffffffffffffffffffffffff168273ffffffffffffffffffffffffffffffffffffffff161415610e3c576040517f08c379a0000000000000000000000000000000000000000000000000000000008152600401610e339061137f565b60405180910390fd5b610e47838383610fdd565b60008060008573ffffffffffffffffffffffffffffffffffffffff1673ffffffffffffffffffffffffffffffffffffffff16815260200190815260200160002054905081811015610ecd576040517f08c379a0000000000000000000000000000000000000000000000000000000008152600401610ec49061141f565b60405180910390fd5b8181036000808673ffffffffffffffffffffffffffffffffffffffff1673ffffffffffffffffffffffffffffffffffffffff16815260200190815260200160002081905550816000808573ffffffffffffffffffffffffffffffffffffffff1673ffffffffffffffffffffffffffffffffffffffff1681526020019081526020016000206000828254610f609190611511565b925050819055508273ffffffffffffffffffffffffffffffffffffffff168473ffffffffffffffffffffffffffffffffffffffff167fddf252ad1be2c89b69c2b068fc378daa952ba7f163c4a11628f55a4df523b3ef84604051610fc491906114bf565b60405180910390a3610fd7848484610fe2565b50505050565b505050565b505050565b600081359050610ff681611958565b92915050565b60008135905061100b8161196f565b92915050565b60006020828403121561102357600080fd5b600061103184828501610fe7565b91505092915050565b6000806040838503121561104d57600080fd5b600061105b85828601610fe7565b925050602061106c85828601610fe7565b9150509250929050565b60008060006060848603121561108b57600080fd5b600061109986828701610fe7565b93505060206110aa86828701610fe7565b92505060406110bb86828701610ffc565b9150509250925092565b600080604083850312156110d857600080fd5b60006110e685828601610fe7565b92505060206110f785828601610ffc565b9150509250929050565b61110a81611567565b82525050565b61111981611579565b82525050565b611128816115bc565b82525050565b6000611139826114f5565b6111438185611500565b93506111538185602086016115e0565b61115c816116a3565b840191505092915050565b6000611174602383611500565b915061117f826116b4565b604082019050919050565b6000611197602083611500565b91506111a282611703565b602082019050919050565b60006111ba602683611500565b91506111c58261172c565b604082019050919050565b60006111dd602283611500565b91506111e88261177b565b604082019050919050565b6000611200601d83611500565b915061120b826117ca565b602082019050919050565b6000611223602683611500565b915061122e826117f3565b604082019050919050565b6000611246602083611500565b915061125182611842565b602082019050919050565b6000611269602583611500565b91506112748261186b565b604082019050919050565b600061128c602483611500565b9150611297826118ba565b604082019050919050565b60006112af602583611500565b91506112ba82611909565b604082019050919050565b6112ce816115a5565b82525050565b6112dd816115af565b82525050565b60006020820190506112f86000830184611101565b92915050565b60006040820190506113136000830185611101565b61132060208301846112c5565b9392505050565b600060208201905061133c6000830184611110565b92915050565b6000602082019050611357600083018461111f565b92915050565b60006020820190508181036000830152611377818461112e565b905092915050565b6000602082019050818103600083015261139881611167565b9050919050565b600060208201905081810360008301526113b88161118a565b9050919050565b600060208201905081810360008301526113d8816111ad565b9050919050565b600060208201905081810360008301526113f8816111d0565b9050919050565b60006020820190508181036000830152611418816111f3565b9050919050565b6000602082019050818103600083015261143881611216565b9050919050565b6000602082019050818103600083015261145881611239565b9050919050565b600060208201905081810360008301526114788161125c565b9050919050565b600060208201905081810360008301526114988161127f565b9050919050565b600060208201905081810360008301526114b8816112a2565b9050919050565b60006020820190506114d460008301846112c5565b92915050565b60006020820190506114ef60008301846112d4565b92915050565b600081519050919050565b600082825260208201905092915050565b600061151c826115a5565b9150611527836115a5565b9250827fffffffffffffffffffffffffffffffffffffffffffffffffffffffffffffffff0382111561155c5761155b611645565b5b828201905092915050565b600061157282611585565b9050919050565b60008115159050919050565b600073ffffffffffffffffffffffffffffffffffffffff82169050919050565b6000819050919050565b600060ff82169050919050565b60006115c7826115ce565b9050919050565b60006115d982611585565b9050919050565b60005b838110156115fe5780820151818401526020810190506115e3565b8381111561160d576000848401525b50505050565b6000600282049050600182168061162b57607f821691505b6020821081141561163f5761163e611674565b5b50919050565b7f4e487b7100000000000000000000000000000000000000000000000000000000600052601160045260246000fd5b7f4e487b7100000000000000000000000000000000000000000000000000000000600052602260045260246000fd5b6000601f19601f8301169050919050565b7f45524332303a207472616e7366657220746f20746865207a65726f206164647260008201527f6573730000000000000000000000000000000000000000000000000000000000602082015250565b7f526577617264734469737472696275746f723a207a65726f2061646472657373600082015250565b7f4f776e61626c653a206e6577206f776e657220697320746865207a65726f206160008201527f6464726573730000000000000000000000000000000000000000000000000000602082015250565b7f45524332303a20617070726f766520746f20746865207a65726f20616464726560008201527f7373000000000000000000000000000000000000000000000000000000000000602082015250565b7f45524332303a20696e73756666696369656e7420616c6c6f77616e6365000000600082015250565b7f45524332303a207472616e7366657220616d6f756e742065786365656473206260008201527f616c616e63650000000000000000000000000000000000000000000000000000602082015250565b7f4f776e61626c653a2063616c6c6572206973206e6f7420746865206f776e6572600082015250565b7f45524332303a207472616e736665722066726f6d20746865207a65726f20616460008201527f6472657373000000000000000000000000000000000000000000000000000000602082015250565b7f45524332303a20617070726f76652066726f6d20746865207a65726f2061646460008201527f7265737300000000000000000000000000000000000000000000000000000000602082015250565b7f45524332303a2064656372656173656420616c6c6f77616e63652062656c6f7760008201527f207a65726f000000000000000000000000000000000000000000000000000000602082015250565b61196181611567565b811461196c57600080fd5b50565b611978816115a5565b811461198357600080fd5b5056fea264697066735822122018b302899fe3e17f1b11f6ef5b9cd76819f9ad44f034fe7c52aaaf3b63c086f864736f6c63430008020033",
  "devdoc": {
    "kind": "dev",
    "methods": {
      "allowance(address,address)": {
        "details": "See {IERC20-allowance}."
      },
      "approve(address,uint256)": {
        "details": "See {IERC20-approve}. NOTE: If `amount` is the maximum `uint256`, the allowance is not updated on `transferFrom`. This is semantically equivalent to an infinite approval. Requirements: - `spender` cannot be the zero address."
      },
      "balanceOf(address)": {
        "details": "See {IERC20-balanceOf}."
      },
      "decimals()": {
        "details": "Returns the number of decimals used to get its user representation. For example, if `decimals` equals `2`, a balance of `505` tokens should be displayed to a user as `5.05` (`505 / 10 ** 2`). Tokens usually opt for a value of 18, imitating the relationship between Ether and Wei. This is the value {ERC20} uses, unless this function is overridden; NOTE: This information is only used for _display_ purposes: it in no way affects any of the arithmetic of the contract, including {IERC20-balanceOf} and {IERC20-transfer}."
      },
      "decreaseAllowance(address,uint256)": {
        "details": "Atomically decreases the allowance granted to `spender` by the caller. This is an alternative to {approve} that can be used as a mitigation for problems described in {IERC20-approve}. Emits an {Approval} event indicating the updated allowance. Requirements: - `spender` cannot be the zero address. - `spender` must have allowance for the caller of at least `subtractedValue`."
      },
      "increaseAllowance(address,uint256)": {
        "details": "Atomically increases the allowance granted to `spender` by the caller. This is an alternative to {approve} that can be used as a mitigation for problems described in {IERC20-approve}. Emits an {Approval} event indicating the updated allowance. Requirements: - `spender` cannot be the zero address."
      },
      "name()": {
        "details": "Returns the name of the token."
      },
      "owner()": {
        "details": "Returns the address of the current owner."
      },
      "renounceOwnership()": {
        "details": "Leaves the contract without owner. It will not be possible to call `onlyOwner` functions anymore. Can only be called by the current owner. NOTE: Renouncing ownership will leave the contract without an owner, thereby removing any functionality that is only available to the owner."
      },
      "symbol()": {
        "details": "Returns the symbol of the token, usually a shorter version of the name."
      },
      "totalSupply()": {
        "details": "See {IERC20-totalSupply}."
      },
      "transfer(address,uint256)": {
        "details": "See {IERC20-transfer}. Requirements: - `to` cannot be the zero address. - the caller must have a balance of at least `amount`."
      },
      "transferFrom(address,address,uint256)": {
        "details": "See {IERC20-transferFrom}. Emits an {Approval} event indicating the updated allowance. This is not required by the EIP. See the note at the beginning of {ERC20}. NOTE: Does not update the allowance if the current allowance is the maximum `uint256`. Requirements: - `from` and `to` cannot be the zero address. - `from` must have a balance of at least `amount`. - the caller must have allowance for ``from``'s tokens of at least `amount`."
      },
      "transferOwnership(address)": {
        "details": "Transfers ownership of the contract to a new account (`newOwner`). Can only be called by the current owner."
      }
    },
    "version": 1
  },
  "userdoc": {
    "kind": "user",
    "methods": {},
    "version": 1
  },
  "storageLayout": {
    "storage": [
      {
        "astId": 5292,
        "contract": "contracts/v3/Asset.sol:Asset",
        "label": "_balances",
        "offset": 0,
        "slot": "0",
        "type": "t_mapping(t_address,t_uint256)"
      },
      {
        "astId": 5298,
        "contract": "contracts/v3/Asset.sol:Asset",
        "label": "_allowances",
        "offset": 0,
        "slot": "1",
        "type": "t_mapping(t_address,t_mapping(t_address,t_uint256))"
      },
      {
        "astId": 5300,
        "contract": "contracts/v3/Asset.sol:Asset",
        "label": "_totalSupply",
        "offset": 0,
        "slot": "2",
        "type": "t_uint256"
      },
      {
        "astId": 5302,
        "contract": "contracts/v3/Asset.sol:Asset",
        "label": "_name",
        "offset": 0,
        "slot": "3",
        "type": "t_string_storage"
      },
      {
        "astId": 5304,
        "contract": "contracts/v3/Asset.sol:Asset",
        "label": "_symbol",
        "offset": 0,
        "slot": "4",
        "type": "t_string_storage"
      },
      {
        "astId": 3767,
        "contract": "contracts/v3/Asset.sol:Asset",
        "label": "_owner",
        "offset": 0,
        "slot": "5",
        "type": "t_address"
      },
      {
        "astId": 7697,
        "contract": "contracts/v3/Asset.sol:Asset",
        "label": "rewardsDistributor",
        "offset": 0,
        "slot": "6",
        "type": "t_contract(RewardsDistributor)10182"
      }
    ],
    "types": {
      "t_address": {
        "encoding": "inplace",
        "label": "address",
        "numberOfBytes": "20"
      },
      "t_contract(RewardsDistributor)10182": {
        "encoding": "inplace",
        "label": "contract RewardsDistributor",
        "numberOfBytes": "20"
      },
      "t_mapping(t_address,t_mapping(t_address,t_uint256))": {
        "encoding": "mapping",
        "key": "t_address",
        "label": "mapping(address => mapping(address => uint256))",
        "numberOfBytes": "32",
        "value": "t_mapping(t_address,t_uint256)"
      },
      "t_mapping(t_address,t_uint256)": {
        "encoding": "mapping",
        "key": "t_address",
        "label": "mapping(address => uint256)",
        "numberOfBytes": "32",
        "value": "t_uint256"
      },
      "t_string_storage": {
        "encoding": "bytes",
        "label": "string",
        "numberOfBytes": "32"
      },
      "t_uint256": {
        "encoding": "inplace",
        "label": "uint256",
        "numberOfBytes": "32"
      }
    }
  }
}