{
  "address": "0x9b6794792b19D262e5bD3cC6D1028ccDbeB3Aeb5",
  "abi": [
    {
      "anonymous": false,
      "inputs": [
        {
          "indexed": false,
          "internalType": "uint8",
          "name": "version",
          "type": "uint8"
        }
      ],
      "name": "Initialized",
      "type": "event"
    },
    {
      "anonymous": false,
      "inputs": [
        {
          "indexed": true,
          "internalType": "address",
          "name": "previousOwner",
          "type": "address"
        },
        {
          "indexed": true,
          "internalType": "address",
          "name": "newOwner",
          "type": "address"
        }
      ],
      "name": "OwnershipTransferred",
      "type": "event"
    },
    {
      "inputs": [
        {
          "internalType": "address",
          "name": "userAddress",
          "type": "address"
        },
        {
          "internalType": "string",
          "name": "id",
          "type": "string"
        }
      ],
      "name": "approve",
      "outputs": [],
      "stateMutability": "nonpayable",
      "type": "function"
    },
    {
      "inputs": [
        {
          "internalType": "address",
          "name": "userAddress",
          "type": "address"
        }
      ],
      "name": "disable",
      "outputs": [],
      "stateMutability": "nonpayable",
      "type": "function"
    },
    {
      "inputs": [],
      "name": "initialize",
      "outputs": [],
      "stateMutability": "nonpayable",
      "type": "function"
    },
    {
      "inputs": [
        {
          "internalType": "address",
          "name": "userAddress",
          "type": "address"
        }
      ],
      "name": "isApproved",
      "outputs": [
        {
          "internalType": "bool",
          "name": "",
          "type": "bool"
        }
      ],
      "stateMutability": "view",
      "type": "function"
    },
    {
      "inputs": [],
      "name": "owner",
      "outputs": [
        {
          "internalType": "address",
          "name": "",
          "type": "address"
        }
      ],
      "stateMutability": "view",
      "type": "function"
    },
    {
      "inputs": [],
      "name": "renounceOwnership",
      "outputs": [],
      "stateMutability": "nonpayable",
      "type": "function"
    },
    {
      "inputs": [
        {
          "internalType": "address",
          "name": "newOwner",
          "type": "address"
        }
      ],
      "name": "transferOwnership",
      "outputs": [],
      "stateMutability": "nonpayable",
      "type": "function"
    }
  ],
  "transactionHash": "0x38b79b0f3c552f2cef879d6d99231652d3e293c77ca5f14810026a1675e50dad",
  "args": [],
  "numDeployments": 1,
  "solcInputHash": "d805d8ea75f40c3ebf99bc07fc003185",
  "bytecode": "0x608060405234801561001057600080fd5b50610c47806100206000396000f3fe608060405234801561001057600080fd5b506004361061007d5760003560e01c80638129fc1c1161005b5780638129fc1c146100d85780638da5cb5b146100e2578063e6c09edf14610100578063f2fde38b1461011c5761007d565b806329cd00f714610082578063673448dd1461009e578063715018a6146100ce575b600080fd5b61009c60048036038101906100979190610833565b610138565b005b6100b860048036038101906100b3919061080a565b610220565b6040516100c5919061095f565b60405180910390f35b6100d6610279565b005b6100e061028d565b005b6100ea6103cb565b6040516100f79190610944565b60405180910390f35b61011a6004803603810190610115919061080a565b6103f5565b005b6101366004803603810190610131919061080a565b61045b565b005b6101406104df565b604051806040016040528083838080601f016020809104026020016040519081016040528093929190818152602001838380828437600081840152601f19601f82011690508083019250505050505050815260200160011515815250606560008573ffffffffffffffffffffffffffffffffffffffff1673ffffffffffffffffffffffffffffffffffffffff16815260200190815260200160002060008201518160000190805190602001906101f7929190610708565b5060208201518160010160006101000a81548160ff021916908315150217905550905050505050565b6000606560008373ffffffffffffffffffffffffffffffffffffffff1673ffffffffffffffffffffffffffffffffffffffff16815260200190815260200160002060010160009054906101000a900460ff169050919050565b6102816104df565b61028b600061055d565b565b60008060019054906101000a900460ff161590508080156102be5750600160008054906101000a900460ff1660ff16105b806102eb57506102cd30610623565b1580156102ea5750600160008054906101000a900460ff1660ff16145b5b61032a576040517f08c379a0000000000000000000000000000000000000000000000000000000008152600401610321906109b5565b60405180910390fd5b60016000806101000a81548160ff021916908360ff1602179055508015610367576001600060016101000a81548160ff0219169083151502179055505b61036f610646565b80156103c85760008060016101000a81548160ff0219169083151502179055507f7f26b83ff96e1f2b6a682f133852f6798a09c465da95921460cefb384740249860016040516103bf919061097a565b60405180910390a15b50565b6000603360009054906101000a900473ffffffffffffffffffffffffffffffffffffffff16905090565b6103fd6104df565b6000606560008373ffffffffffffffffffffffffffffffffffffffff1673ffffffffffffffffffffffffffffffffffffffff16815260200190815260200160002060010160006101000a81548160ff02191690831515021790555050565b6104636104df565b600073ffffffffffffffffffffffffffffffffffffffff168173ffffffffffffffffffffffffffffffffffffffff1614156104d3576040517f08c379a00000000000000000000000000000000000000000000000000000000081526004016104ca90610995565b60405180910390fd5b6104dc8161055d565b50565b6104e761069f565b73ffffffffffffffffffffffffffffffffffffffff166105056103cb565b73ffffffffffffffffffffffffffffffffffffffff161461055b576040517f08c379a0000000000000000000000000000000000000000000000000000000008152600401610552906109d5565b60405180910390fd5b565b6000603360009054906101000a900473ffffffffffffffffffffffffffffffffffffffff16905081603360006101000a81548173ffffffffffffffffffffffffffffffffffffffff021916908373ffffffffffffffffffffffffffffffffffffffff1602179055508173ffffffffffffffffffffffffffffffffffffffff168173ffffffffffffffffffffffffffffffffffffffff167f8be0079c531659141344cd1fd0a4f28419497f9722a3daafe3b4186f6b6457e060405160405180910390a35050565b6000808273ffffffffffffffffffffffffffffffffffffffff163b119050919050565b600060019054906101000a900460ff16610695576040517f08c379a000000000000000000000000000000000000000000000000000000000815260040161068c906109f5565b60405180910390fd5b61069d6106a7565b565b600033905090565b600060019054906101000a900460ff166106f6576040517f08c379a00000000000000000000000000000000000000000000000000000000081526004016106ed906109f5565b60405180910390fd5b61070661070161069f565b61055d565b565b82805461071490610a83565b90600052602060002090601f016020900481019282610736576000855561077d565b82601f1061074f57805160ff191683800117855561077d565b8280016001018555821561077d579182015b8281111561077c578251825591602001919060010190610761565b5b50905061078a919061078e565b5090565b5b808211156107a757600081600090555060010161078f565b5090565b6000813590506107ba81610bfa565b92915050565b60008083601f8401126107d257600080fd5b8235905067ffffffffffffffff8111156107eb57600080fd5b60208301915083600182028301111561080357600080fd5b9250929050565b60006020828403121561081c57600080fd5b600061082a848285016107ab565b91505092915050565b60008060006040848603121561084857600080fd5b6000610856868287016107ab565b935050602084013567ffffffffffffffff81111561087357600080fd5b61087f868287016107c0565b92509250509250925092565b61089481610a26565b82525050565b6108a381610a38565b82525050565b6108b281610a71565b82525050565b60006108c5602683610a15565b91506108d082610ae4565b604082019050919050565b60006108e8602e83610a15565b91506108f382610b33565b604082019050919050565b600061090b602083610a15565b915061091682610b82565b602082019050919050565b600061092e602b83610a15565b915061093982610bab565b604082019050919050565b6000602082019050610959600083018461088b565b92915050565b6000602082019050610974600083018461089a565b92915050565b600060208201905061098f60008301846108a9565b92915050565b600060208201905081810360008301526109ae816108b8565b9050919050565b600060208201905081810360008301526109ce816108db565b9050919050565b600060208201905081810360008301526109ee816108fe565b9050919050565b60006020820190508181036000830152610a0e81610921565b9050919050565b600082825260208201905092915050565b6000610a3182610a44565b9050919050565b60008115159050919050565b600073ffffffffffffffffffffffffffffffffffffffff82169050919050565b600060ff82169050919050565b6000610a7c82610a64565b9050919050565b60006002820490506001821680610a9b57607f821691505b60208210811415610aaf57610aae610ab5565b5b50919050565b7f4e487b7100000000000000000000000000000000000000000000000000000000600052602260045260246000fd5b7f4f776e61626c653a206e6577206f776e657220697320746865207a65726f206160008201527f6464726573730000000000000000000000000000000000000000000000000000602082015250565b7f496e697469616c697a61626c653a20636f6e747261637420697320616c72656160008201527f647920696e697469616c697a6564000000000000000000000000000000000000602082015250565b7f4f776e61626c653a2063616c6c6572206973206e6f7420746865206f776e6572600082015250565b7f496e697469616c697a61626c653a20636f6e7472616374206973206e6f74206960008201527f6e697469616c697a696e67000000000000000000000000000000000000000000602082015250565b610c0381610a26565b8114610c0e57600080fd5b5056fea2646970667358221220d7d1df2e7694f429b5a6c11120ae10953d40eb27e645a6a38ce1a8dea9fb3fbf64736f6c63430008020033",
  "devdoc": {
    "kind": "dev",
    "methods": {
      "owner()": {
        "details": "Returns the address of the current owner."
      },
      "renounceOwnership()": {
        "details": "Leaves the contract without owner. It will not be possible to call `onlyOwner` functions anymore. Can only be called by the current owner. NOTE: Renouncing ownership will leave the contract without an owner, thereby removing any functionality that is only available to the owner."
      },
      "transferOwnership(address)": {
        "details": "Transfers ownership of the contract to a new account (`newOwner`). Can only be called by the current owner."
      }
    },
    "version": 1
  },
  "userdoc": {
    "kind": "user",
    "methods": {},
    "version": 1
  },
  "storageLayout": {
    "storage": [
      {
        "astId": 138,
        "contract": "contracts/v3/KycStore.sol:KycStore",
        "label": "_initialized",
        "offset": 0,
        "slot": "0",
        "type": "t_uint8"
      },
      {
        "astId": 141,
        "contract": "contracts/v3/KycStore.sol:KycStore",
        "label": "_initializing",
        "offset": 1,
        "slot": "0",
        "type": "t_bool"
      },
      {
        "astId": 625,
        "contract": "contracts/v3/KycStore.sol:KycStore",
        "label": "__gap",
        "offset": 0,
        "slot": "1",
        "type": "t_array(t_uint256)50_storage"
      },
      {
        "astId": 10,
        "contract": "contracts/v3/KycStore.sol:KycStore",
        "label": "_owner",
        "offset": 0,
        "slot": "51",
        "type": "t_address"
      },
      {
        "astId": 130,
        "contract": "contracts/v3/KycStore.sol:KycStore",
        "label": "__gap",
        "offset": 0,
        "slot": "52",
        "type": "t_array(t_uint256)49_storage"
      },
      {
        "astId": 642,
        "contract": "contracts/v3/KycStore.sol:KycStore",
        "label": "users",
        "offset": 0,
        "slot": "101",
        "type": "t_mapping(t_address,t_struct(User)637_storage)"
      }
    ],
    "types": {
      "t_address": {
        "encoding": "inplace",
        "label": "address",
        "numberOfBytes": "20"
      },
      "t_array(t_uint256)49_storage": {
        "base": "t_uint256",
        "encoding": "inplace",
        "label": "uint256[49]",
        "numberOfBytes": "1568"
      },
      "t_array(t_uint256)50_storage": {
        "base": "t_uint256",
        "encoding": "inplace",
        "label": "uint256[50]",
        "numberOfBytes": "1600"
      },
      "t_bool": {
        "encoding": "inplace",
        "label": "bool",
        "numberOfBytes": "1"
      },
      "t_mapping(t_address,t_struct(User)637_storage)": {
        "encoding": "mapping",
        "key": "t_address",
        "label": "mapping(address => struct KycStore.User)",
        "numberOfBytes": "32",
        "value": "t_struct(User)637_storage"
      },
      "t_string_storage": {
        "encoding": "bytes",
        "label": "string",
        "numberOfBytes": "32"
      },
      "t_struct(User)637_storage": {
        "encoding": "inplace",
        "label": "struct KycStore.User",
        "members": [
          {
            "astId": 634,
            "contract": "contracts/v3/KycStore.sol:KycStore",
            "label": "id",
            "offset": 0,
            "slot": "0",
            "type": "t_string_storage"
          },
          {
            "astId": 636,
            "contract": "contracts/v3/KycStore.sol:KycStore",
            "label": "isApproved",
            "offset": 0,
            "slot": "1",
            "type": "t_bool"
          }
        ],
        "numberOfBytes": "64"
      },
      "t_uint256": {
        "encoding": "inplace",
        "label": "uint256",
        "numberOfBytes": "32"
      },
      "t_uint8": {
        "encoding": "inplace",
        "label": "uint8",
        "numberOfBytes": "1"
      }
    }
  }
}